{
  "contractName": "UNCRAgent",
  "abi": [
    {
      "inputs": [
        {
          "internalType": "string",
          "name": "customBaseURI_",
          "type": "string"
        }
      ],
      "stateMutability": "nonpayable",
      "type": "constructor"
    },
    {
      "anonymous": false,
      "inputs": [
        {
          "indexed": true,
          "internalType": "address",
          "name": "owner",
          "type": "address"
        },
        {
          "indexed": true,
          "internalType": "address",
          "name": "approved",
          "type": "address"
        },
        {
          "indexed": true,
          "internalType": "uint256",
          "name": "tokenId",
          "type": "uint256"
        }
      ],
      "name": "Approval",
      "type": "event"
    },
    {
      "anonymous": false,
      "inputs": [
        {
          "indexed": true,
          "internalType": "address",
          "name": "owner",
          "type": "address"
        },
        {
          "indexed": true,
          "internalType": "address",
          "name": "operator",
          "type": "address"
        },
        {
          "indexed": false,
          "internalType": "bool",
          "name": "approved",
          "type": "bool"
        }
      ],
      "name": "ApprovalForAll",
      "type": "event"
    },
    {
      "anonymous": false,
      "inputs": [
        {
          "indexed": true,
          "internalType": "address",
          "name": "previousOwner",
          "type": "address"
        },
        {
          "indexed": true,
          "internalType": "address",
          "name": "newOwner",
          "type": "address"
        }
      ],
      "name": "OwnershipTransferred",
      "type": "event"
    },
    {
      "anonymous": false,
      "inputs": [
        {
          "indexed": true,
          "internalType": "address",
          "name": "from",
          "type": "address"
        },
        {
          "indexed": true,
          "internalType": "address",
          "name": "to",
          "type": "address"
        },
        {
          "indexed": true,
          "internalType": "uint256",
          "name": "tokenId",
          "type": "uint256"
        }
      ],
      "name": "Transfer",
      "type": "event"
    },
    {
      "inputs": [
        {
          "internalType": "address",
          "name": "to",
          "type": "address"
        },
        {
          "internalType": "uint256",
          "name": "tokenId",
          "type": "uint256"
        }
      ],
      "name": "approve",
      "outputs": [],
      "stateMutability": "nonpayable",
      "type": "function"
    },
    {
      "inputs": [
        {
          "internalType": "address",
          "name": "owner",
          "type": "address"
        }
      ],
      "name": "balanceOf",
      "outputs": [
        {
          "internalType": "uint256",
          "name": "",
          "type": "uint256"
        }
      ],
      "stateMutability": "view",
      "type": "function",
      "constant": true
    },
    {
      "inputs": [
        {
          "internalType": "uint256",
          "name": "tokenId",
          "type": "uint256"
        }
      ],
      "name": "getApproved",
      "outputs": [
        {
          "internalType": "address",
          "name": "",
          "type": "address"
        }
      ],
      "stateMutability": "view",
      "type": "function",
      "constant": true
    },
    {
      "inputs": [
        {
          "internalType": "address",
          "name": "owner",
          "type": "address"
        },
        {
          "internalType": "address",
          "name": "operator",
          "type": "address"
        }
      ],
      "name": "isApprovedForAll",
      "outputs": [
        {
          "internalType": "bool",
          "name": "",
          "type": "bool"
        }
      ],
      "stateMutability": "view",
      "type": "function",
      "constant": true
    },
    {
      "inputs": [],
      "name": "name",
      "outputs": [
        {
          "internalType": "string",
          "name": "",
          "type": "string"
        }
      ],
      "stateMutability": "view",
      "type": "function",
      "constant": true
    },
    {
      "inputs": [],
      "name": "owner",
      "outputs": [
        {
          "internalType": "address",
          "name": "",
          "type": "address"
        }
      ],
      "stateMutability": "view",
      "type": "function",
      "constant": true
    },
    {
      "inputs": [
        {
          "internalType": "uint256",
          "name": "tokenId",
          "type": "uint256"
        }
      ],
      "name": "ownerOf",
      "outputs": [
        {
          "internalType": "address",
          "name": "",
          "type": "address"
        }
      ],
      "stateMutability": "view",
      "type": "function",
      "constant": true
    },
    {
      "inputs": [],
      "name": "renounceOwnership",
      "outputs": [],
      "stateMutability": "nonpayable",
      "type": "function"
    },
    {
      "inputs": [
        {
          "internalType": "address",
          "name": "from",
          "type": "address"
        },
        {
          "internalType": "address",
          "name": "to",
          "type": "address"
        },
        {
          "internalType": "uint256",
          "name": "tokenId",
          "type": "uint256"
        }
      ],
      "name": "safeTransferFrom",
      "outputs": [],
      "stateMutability": "nonpayable",
      "type": "function"
    },
    {
      "inputs": [
        {
          "internalType": "address",
          "name": "from",
          "type": "address"
        },
        {
          "internalType": "address",
          "name": "to",
          "type": "address"
        },
        {
          "internalType": "uint256",
          "name": "tokenId",
          "type": "uint256"
        },
        {
          "internalType": "bytes",
          "name": "data",
          "type": "bytes"
        }
      ],
      "name": "safeTransferFrom",
      "outputs": [],
      "stateMutability": "nonpayable",
      "type": "function"
    },
    {
      "inputs": [
        {
          "internalType": "address",
          "name": "operator",
          "type": "address"
        },
        {
          "internalType": "bool",
          "name": "approved",
          "type": "bool"
        }
      ],
      "name": "setApprovalForAll",
      "outputs": [],
      "stateMutability": "nonpayable",
      "type": "function"
    },
    {
      "inputs": [
        {
          "internalType": "bytes4",
          "name": "interfaceId",
          "type": "bytes4"
        }
      ],
      "name": "supportsInterface",
      "outputs": [
        {
          "internalType": "bool",
          "name": "",
          "type": "bool"
        }
      ],
      "stateMutability": "view",
      "type": "function",
      "constant": true
    },
    {
      "inputs": [],
      "name": "symbol",
      "outputs": [
        {
          "internalType": "string",
          "name": "",
          "type": "string"
        }
      ],
      "stateMutability": "view",
      "type": "function",
      "constant": true
    },
    {
      "inputs": [
        {
          "internalType": "address",
          "name": "from",
          "type": "address"
        },
        {
          "internalType": "address",
          "name": "to",
          "type": "address"
        },
        {
          "internalType": "uint256",
          "name": "tokenId",
          "type": "uint256"
        }
      ],
      "name": "transferFrom",
      "outputs": [],
      "stateMutability": "nonpayable",
      "type": "function"
    },
    {
      "inputs": [
        {
          "internalType": "address",
          "name": "newOwner",
          "type": "address"
        }
      ],
      "name": "transferOwnership",
      "outputs": [],
      "stateMutability": "nonpayable",
      "type": "function"
    },
    {
      "inputs": [
        {
          "internalType": "address",
          "name": "owner",
          "type": "address"
        },
        {
          "internalType": "uint256",
          "name": "index",
          "type": "uint256"
        }
      ],
      "name": "tokenOfOwnerByIndex",
      "outputs": [
        {
          "internalType": "uint256",
          "name": "",
          "type": "uint256"
        }
      ],
      "stateMutability": "view",
      "type": "function",
      "constant": true
    },
    {
      "inputs": [
        {
          "internalType": "string",
          "name": "customBaseURI_",
          "type": "string"
        }
      ],
      "name": "setBaseURI",
      "outputs": [],
      "stateMutability": "nonpayable",
      "type": "function"
    },
    {
      "inputs": [
        {
          "internalType": "uint256",
          "name": "tokenId",
          "type": "uint256"
        }
      ],
      "name": "tokenURI",
      "outputs": [
        {
          "internalType": "string",
          "name": "",
          "type": "string"
        }
      ],
      "stateMutability": "view",
      "type": "function",
      "constant": true
    },
    {
      "inputs": [
        {
          "internalType": "uint256",
          "name": "quantity",
          "type": "uint256"
        }
      ],
      "name": "accountCreation",
      "outputs": [
        {
          "internalType": "uint256",
          "name": "",
          "type": "uint256"
        }
      ],
      "stateMutability": "payable",
      "type": "function",
      "payable": true
    }
  ],
  "bytecode": "0x60806040523480156200001157600080fd5b506040516200353a3803806200353a83398181016040528101906200003791906200031e565b6040518060400160405280600981526020017f554e43524167656e7400000000000000000000000000000000000000000000008152506040518060400160405280600981526020017f554e43524167656e7400000000000000000000000000000000000000000000008152508160009080519060200190620000bb929190620001fc565b508060019080519060200190620000d4929190620001fc565b505050620000f7620000eb6200012e60201b60201c565b6200013660201b60201c565b80600990805190602001906200010f929190620001fc565b5066b1a2bc2ec50000600a819055506103e8600b8190555050620004d3565b600033905090565b6000600760009054906101000a900473ffffffffffffffffffffffffffffffffffffffff16905081600760006101000a81548173ffffffffffffffffffffffffffffffffffffffff021916908373ffffffffffffffffffffffffffffffffffffffff1602179055508173ffffffffffffffffffffffffffffffffffffffff168173ffffffffffffffffffffffffffffffffffffffff167f8be0079c531659141344cd1fd0a4f28419497f9722a3daafe3b4186f6b6457e060405160405180910390a35050565b8280546200020a90620003f8565b90600052602060002090601f0160209004810192826200022e57600085556200027a565b82601f106200024957805160ff19168380011785556200027a565b828001600101855582156200027a579182015b82811115620002795782518255916020019190600101906200025c565b5b5090506200028991906200028d565b5090565b5b80821115620002a85760008160009055506001016200028e565b5090565b6000620002c3620002bd846200038c565b62000363565b905082815260208101848484011115620002dc57600080fd5b620002e9848285620003c2565b509392505050565b600082601f8301126200030357600080fd5b815162000315848260208601620002ac565b91505092915050565b6000602082840312156200033157600080fd5b600082015167ffffffffffffffff8111156200034c57600080fd5b6200035a84828501620002f1565b91505092915050565b60006200036f62000382565b90506200037d82826200042e565b919050565b6000604051905090565b600067ffffffffffffffff821115620003aa57620003a962000493565b5b620003b582620004c2565b9050602081019050919050565b60005b83811015620003e2578082015181840152602081019050620003c5565b83811115620003f2576000848401525b50505050565b600060028204905060018216806200041157607f821691505b6020821081141562000428576200042762000464565b5b50919050565b6200043982620004c2565b810181811067ffffffffffffffff821117156200045b576200045a62000493565b5b80604052505050565b7f4e487b7100000000000000000000000000000000000000000000000000000000600052602260045260246000fd5b7f4e487b7100000000000000000000000000000000000000000000000000000000600052604160045260246000fd5b6000601f19601f8301169050919050565b61305780620004e36000396000f3fe6080604052600436106101145760003560e01c806370a08231116100a0578063a22cb46511610064578063a22cb465146103b6578063b88d4fde146103df578063c87b56dd14610408578063e985e9c514610445578063f2fde38b1461048257610114565b806370a08231146102dc578063715018a61461031957806377e753d4146103305780638da5cb5b1461036057806395d89b411461038b57610114565b806323b872dd116100e757806323b872dd146101e75780632f745c591461021057806342842e0e1461024d57806355f804b3146102765780636352211e1461029f57610114565b806301ffc9a71461011957806306fdde0314610156578063081812fc14610181578063095ea7b3146101be575b600080fd5b34801561012557600080fd5b50610140600480360381019061013b9190612235565b6104ab565b60405161014d9190612687565b60405180910390f35b34801561016257600080fd5b5061016b61058d565b60405161017891906126a2565b60405180910390f35b34801561018d57600080fd5b506101a860048036038101906101a391906122c8565b61061f565b6040516101b59190612620565b60405180910390f35b3480156101ca57600080fd5b506101e560048036038101906101e091906121f9565b610665565b005b3480156101f357600080fd5b5061020e600480360381019061020991906120f3565b61077d565b005b34801561021c57600080fd5b50610237600480360381019061023291906121f9565b6107dd565b60405161024491906128a4565b60405180910390f35b34801561025957600080fd5b50610274600480360381019061026f91906120f3565b6108b3565b005b34801561028257600080fd5b5061029d60048036038101906102989190612287565b6108d3565b005b3480156102ab57600080fd5b506102c660048036038101906102c191906122c8565b6108f5565b6040516102d39190612620565b60405180910390f35b3480156102e857600080fd5b5061030360048036038101906102fe919061208e565b61097c565b60405161031091906128a4565b60405180910390f35b34801561032557600080fd5b5061032e610a34565b005b61034a600480360381019061034591906122c8565b610a48565b60405161035791906128a4565b60405180910390f35b34801561036c57600080fd5b50610375610a85565b6040516103829190612620565b60405180910390f35b34801561039757600080fd5b506103a0610aaf565b6040516103ad91906126a2565b60405180910390f35b3480156103c257600080fd5b506103dd60048036038101906103d891906121bd565b610b41565b005b3480156103eb57600080fd5b5061040660048036038101906104019190612142565b610b57565b005b34801561041457600080fd5b5061042f600480360381019061042a91906122c8565b610bb9565b60405161043c91906126a2565b60405180910390f35b34801561045157600080fd5b5061046c600480360381019061046791906120b7565b610c21565b6040516104799190612687565b60405180910390f35b34801561048e57600080fd5b506104a960048036038101906104a4919061208e565b610cb5565b005b60007f80ac58cd000000000000000000000000000000000000000000000000000000007bffffffffffffffffffffffffffffffffffffffffffffffffffffffff1916827bffffffffffffffffffffffffffffffffffffffffffffffffffffffff1916148061057657507f5b5e139f000000000000000000000000000000000000000000000000000000007bffffffffffffffffffffffffffffffffffffffffffffffffffffffff1916827bffffffffffffffffffffffffffffffffffffffffffffffffffffffff1916145b80610586575061058582610d39565b5b9050919050565b60606000805461059c90612a95565b80601f01602080910402602001604051908101604052809291908181526020018280546105c890612a95565b80156106155780601f106105ea57610100808354040283529160200191610615565b820191906000526020600020905b8154815290600101906020018083116105f857829003601f168201915b5050505050905090565b600061062a82610da3565b6004600083815260200190815260200160002060009054906101000a900473ffffffffffffffffffffffffffffffffffffffff169050919050565b6000610670826108f5565b90508073ffffffffffffffffffffffffffffffffffffffff168373ffffffffffffffffffffffffffffffffffffffff1614156106e1576040517f08c379a00000000000000000000000000000000000000000000000000000000081526004016106d890612864565b60405180910390fd5b8073ffffffffffffffffffffffffffffffffffffffff16610700610dee565b73ffffffffffffffffffffffffffffffffffffffff16148061072f575061072e81610729610dee565b610c21565b5b61076e576040517f08c379a000000000000000000000000000000000000000000000000000000000815260040161076590612884565b60405180910390fd5b6107788383610df6565b505050565b61078e610788610dee565b82610eaf565b6107cd576040517f08c379a00000000000000000000000000000000000000000000000000000000081526004016107c4906126c4565b60405180910390fd5b6107d8838383610f44565b505050565b60006107e88361097c565b8210610829576040517f08c379a0000000000000000000000000000000000000000000000000000000008152600401610820906126e4565b60405180910390fd5b600c60008473ffffffffffffffffffffffffffffffffffffffff1673ffffffffffffffffffffffffffffffffffffffff16815260200190815260200160002082815481106108a0577f4e487b7100000000000000000000000000000000000000000000000000000000600052603260045260246000fd5b9060005260206000200154905092915050565b6108ce83838360405180602001604052806000815250610b57565b505050565b6108db61123e565b80600990805190602001906108f1929190611eb2565b5050565b600080610901836112bc565b9050600073ffffffffffffffffffffffffffffffffffffffff168173ffffffffffffffffffffffffffffffffffffffff161415610973576040517f08c379a000000000000000000000000000000000000000000000000000000000815260040161096a90612844565b60405180910390fd5b80915050919050565b60008073ffffffffffffffffffffffffffffffffffffffff168273ffffffffffffffffffffffffffffffffffffffff1614156109ed576040517f08c379a00000000000000000000000000000000000000000000000000000000081526004016109e4906127e4565b60405180910390fd5b600360008373ffffffffffffffffffffffffffffffffffffffff1673ffffffffffffffffffffffffffffffffffffffff168152602001908152602001600020549050919050565b610a3c61123e565b610a4660006112f9565b565b60006005821115610a5857600080fd5b60005b82811015610a7f57610a6c336113bf565b8080610a7790612af8565b915050610a5b565b50919050565b6000600760009054906101000a900473ffffffffffffffffffffffffffffffffffffffff16905090565b606060018054610abe90612a95565b80601f0160208091040260200160405190810160405280929190818152602001828054610aea90612a95565b8015610b375780601f10610b0c57610100808354040283529160200191610b37565b820191906000526020600020905b815481529060010190602001808311610b1a57829003601f168201915b5050505050905090565b610b53610b4c610dee565b8383611449565b5050565b610b68610b62610dee565b83610eaf565b610ba7576040517f08c379a0000000000000000000000000000000000000000000000000000000008152600401610b9e906126c4565b60405180910390fd5b610bb3848484846115b6565b50505050565b6060610bc482610da3565b6000610bce611612565b90506000815111610bee5760405180602001604052806000815250610c19565b80610bf8846116a4565b604051602001610c099291906125f1565b6040516020818303038152906040525b915050919050565b6000600560008473ffffffffffffffffffffffffffffffffffffffff1673ffffffffffffffffffffffffffffffffffffffff16815260200190815260200160002060008373ffffffffffffffffffffffffffffffffffffffff1673ffffffffffffffffffffffffffffffffffffffff16815260200190815260200160002060009054906101000a900460ff16905092915050565b610cbd61123e565b600073ffffffffffffffffffffffffffffffffffffffff168173ffffffffffffffffffffffffffffffffffffffff161415610d2d576040517f08c379a0000000000000000000000000000000000000000000000000000000008152600401610d2490612724565b60405180910390fd5b610d36816112f9565b50565b60007f01ffc9a7000000000000000000000000000000000000000000000000000000007bffffffffffffffffffffffffffffffffffffffffffffffffffffffff1916827bffffffffffffffffffffffffffffffffffffffffffffffffffffffff1916149050919050565b610dac816117c8565b610deb576040517f08c379a0000000000000000000000000000000000000000000000000000000008152600401610de290612844565b60405180910390fd5b50565b600033905090565b816004600083815260200190815260200160002060006101000a81548173ffffffffffffffffffffffffffffffffffffffff021916908373ffffffffffffffffffffffffffffffffffffffff160217905550808273ffffffffffffffffffffffffffffffffffffffff16610e69836108f5565b73ffffffffffffffffffffffffffffffffffffffff167f8c5be1e5ebec7d5bd14f71427d1e84f3dd0314c0f7b2291e5b200ac8c7c3b92560405160405180910390a45050565b600080610ebb836108f5565b90508073ffffffffffffffffffffffffffffffffffffffff168473ffffffffffffffffffffffffffffffffffffffff161480610efd5750610efc8185610c21565b5b80610f3b57508373ffffffffffffffffffffffffffffffffffffffff16610f238461061f565b73ffffffffffffffffffffffffffffffffffffffff16145b91505092915050565b8273ffffffffffffffffffffffffffffffffffffffff16610f64826108f5565b73ffffffffffffffffffffffffffffffffffffffff1614610fba576040517f08c379a0000000000000000000000000000000000000000000000000000000008152600401610fb190612744565b60405180910390fd5b600073ffffffffffffffffffffffffffffffffffffffff168273ffffffffffffffffffffffffffffffffffffffff16141561102a576040517f08c379a000000000000000000000000000000000000000000000000000000000815260040161102190612784565b60405180910390fd5b6110378383836001611809565b8273ffffffffffffffffffffffffffffffffffffffff16611057826108f5565b73ffffffffffffffffffffffffffffffffffffffff16146110ad576040517f08c379a00000000000000000000000000000000000000000000000000000000081526004016110a490612744565b60405180910390fd5b6004600082815260200190815260200160002060006101000a81549073ffffffffffffffffffffffffffffffffffffffff02191690556001600360008573ffffffffffffffffffffffffffffffffffffffff1673ffffffffffffffffffffffffffffffffffffffff168152602001908152602001600020600082825403925050819055506001600360008473ffffffffffffffffffffffffffffffffffffffff1673ffffffffffffffffffffffffffffffffffffffff16815260200190815260200160002060008282540192505081905550816002600083815260200190815260200160002060006101000a81548173ffffffffffffffffffffffffffffffffffffffff021916908373ffffffffffffffffffffffffffffffffffffffff160217905550808273ffffffffffffffffffffffffffffffffffffffff168473ffffffffffffffffffffffffffffffffffffffff167fddf252ad1be2c89b69c2b068fc378daa952ba7f163c4a11628f55a4df523b3ef60405160405180910390a4611239838383600161180f565b505050565b611246610dee565b73ffffffffffffffffffffffffffffffffffffffff16611264610a85565b73ffffffffffffffffffffffffffffffffffffffff16146112ba576040517f08c379a00000000000000000000000000000000000000000000000000000000081526004016112b190612824565b60405180910390fd5b565b60006002600083815260200190815260200160002060009054906101000a900473ffffffffffffffffffffffffffffffffffffffff169050919050565b6000600760009054906101000a900473ffffffffffffffffffffffffffffffffffffffff16905081600760006101000a81548173ffffffffffffffffffffffffffffffffffffffff021916908373ffffffffffffffffffffffffffffffffffffffff1602179055508173ffffffffffffffffffffffffffffffffffffffff168173ffffffffffffffffffffffffffffffffffffffff167f8be0079c531659141344cd1fd0a4f28419497f9722a3daafe3b4186f6b6457e060405160405180910390a35050565b600b546113cc6008611815565b111561140d576040517f08c379a0000000000000000000000000000000000000000000000000000000008152600401611404906127c4565b60405180910390fd5b6000600161141b6008611815565b6114259190612989565b90506114318282611823565b61143b8282611a41565b6114456008611aab565b5050565b8173ffffffffffffffffffffffffffffffffffffffff168373ffffffffffffffffffffffffffffffffffffffff1614156114b8576040517f08c379a00000000000000000000000000000000000000000000000000000000081526004016114af906127a4565b60405180910390fd5b80600560008573ffffffffffffffffffffffffffffffffffffffff1673ffffffffffffffffffffffffffffffffffffffff16815260200190815260200160002060008473ffffffffffffffffffffffffffffffffffffffff1673ffffffffffffffffffffffffffffffffffffffff16815260200190815260200160002060006101000a81548160ff0219169083151502179055508173ffffffffffffffffffffffffffffffffffffffff168373ffffffffffffffffffffffffffffffffffffffff167f17307eab39ab6107e8899845ad3d59bd9653f200f220920489ca2b5937696c31836040516115a99190612687565b60405180910390a3505050565b6115c1848484610f44565b6115cd84848484611ac1565b61160c576040517f08c379a000000000000000000000000000000000000000000000000000000000815260040161160390612704565b60405180910390fd5b50505050565b60606009805461162190612a95565b80601f016020809104026020016040519081016040528092919081815260200182805461164d90612a95565b801561169a5780601f1061166f5761010080835404028352916020019161169a565b820191906000526020600020905b81548152906001019060200180831161167d57829003601f168201915b5050505050905090565b6060600060016116b384611c58565b01905060008167ffffffffffffffff8111156116f8577f4e487b7100000000000000000000000000000000000000000000000000000000600052604160045260246000fd5b6040519080825280601f01601f19166020018201604052801561172a5781602001600182028036833780820191505090505b509050600082602001820190505b6001156117bd578080600190039150507f3031323334353637383961626364656600000000000000000000000000000000600a86061a8153600a85816117a7577f4e487b7100000000000000000000000000000000000000000000000000000000600052601260045260246000fd5b04945060008514156117b8576117bd565b611738565b819350505050919050565b60008073ffffffffffffffffffffffffffffffffffffffff166117ea836112bc565b73ffffffffffffffffffffffffffffffffffffffff1614159050919050565b50505050565b50505050565b600081600001549050919050565b600073ffffffffffffffffffffffffffffffffffffffff168273ffffffffffffffffffffffffffffffffffffffff161415611893576040517f08c379a000000000000000000000000000000000000000000000000000000000815260040161188a90612804565b60405180910390fd5b61189c816117c8565b156118dc576040517f08c379a00000000000000000000000000000000000000000000000000000000081526004016118d390612764565b60405180910390fd5b6118ea600083836001611809565b6118f3816117c8565b15611933576040517f08c379a000000000000000000000000000000000000000000000000000000000815260040161192a90612764565b60405180910390fd5b6001600360008473ffffffffffffffffffffffffffffffffffffffff1673ffffffffffffffffffffffffffffffffffffffff16815260200190815260200160002060008282540192505081905550816002600083815260200190815260200160002060006101000a81548173ffffffffffffffffffffffffffffffffffffffff021916908373ffffffffffffffffffffffffffffffffffffffff160217905550808273ffffffffffffffffffffffffffffffffffffffff16600073ffffffffffffffffffffffffffffffffffffffff167fddf252ad1be2c89b69c2b068fc378daa952ba7f163c4a11628f55a4df523b3ef60405160405180910390a4611a3d60008383600161180f565b5050565b600c60008373ffffffffffffffffffffffffffffffffffffffff1673ffffffffffffffffffffffffffffffffffffffff1681526020019081526020016000208190806001815401808255809150506001900390600052602060002001600090919091909150555050565b6001816000016000828254019250508190555050565b6000611ae28473ffffffffffffffffffffffffffffffffffffffff16611e8f565b15611c4b578373ffffffffffffffffffffffffffffffffffffffff1663150b7a02611b0b610dee565b8786866040518563ffffffff1660e01b8152600401611b2d949392919061263b565b602060405180830381600087803b158015611b4757600080fd5b505af1925050508015611b7857506040513d601f19601f82011682018060405250810190611b75919061225e565b60015b611bfb573d8060008114611ba8576040519150601f19603f3d011682016040523d82523d6000602084013e611bad565b606091505b50600081511415611bf3576040517f08c379a0000000000000000000000000000000000000000000000000000000008152600401611bea90612704565b60405180910390fd5b805181602001fd5b63150b7a0260e01b7bffffffffffffffffffffffffffffffffffffffffffffffffffffffff1916817bffffffffffffffffffffffffffffffffffffffffffffffffffffffff191614915050611c50565b600190505b949350505050565b600080600090507a184f03e93ff9f4daa797ed6e38ed64bf6a1f0100000000000000008310611cdc577a184f03e93ff9f4daa797ed6e38ed64bf6a1f0100000000000000008381611cd2577f4e487b7100000000000000000000000000000000000000000000000000000000600052601260045260246000fd5b0492506040810190505b6d04ee2d6d415b85acef81000000008310611d3f576d04ee2d6d415b85acef81000000008381611d35577f4e487b7100000000000000000000000000000000000000000000000000000000600052601260045260246000fd5b0492506020810190505b662386f26fc100008310611d9457662386f26fc100008381611d8a577f4e487b7100000000000000000000000000000000000000000000000000000000600052601260045260246000fd5b0492506010810190505b6305f5e1008310611de3576305f5e1008381611dd9577f4e487b7100000000000000000000000000000000000000000000000000000000600052601260045260246000fd5b0492506008810190505b6127108310611e2e576127108381611e24577f4e487b7100000000000000000000000000000000000000000000000000000000600052601260045260246000fd5b0492506004810190505b60648310611e775760648381611e6d577f4e487b7100000000000000000000000000000000000000000000000000000000600052601260045260246000fd5b0492506002810190505b600a8310611e86576001810190505b80915050919050565b6000808273ffffffffffffffffffffffffffffffffffffffff163b119050919050565b828054611ebe90612a95565b90600052602060002090601f016020900481019282611ee05760008555611f27565b82601f10611ef957805160ff1916838001178555611f27565b82800160010185558215611f27579182015b82811115611f26578251825591602001919060010190611f0b565b5b509050611f349190611f38565b5090565b5b80821115611f51576000816000905550600101611f39565b5090565b6000611f68611f63846128e4565b6128bf565b905082815260208101848484011115611f8057600080fd5b611f8b848285612a53565b509392505050565b6000611fa6611fa184612915565b6128bf565b905082815260208101848484011115611fbe57600080fd5b611fc9848285612a53565b509392505050565b600081359050611fe081612fc5565b92915050565b600081359050611ff581612fdc565b92915050565b60008135905061200a81612ff3565b92915050565b60008151905061201f81612ff3565b92915050565b600082601f83011261203657600080fd5b8135612046848260208601611f55565b91505092915050565b600082601f83011261206057600080fd5b8135612070848260208601611f93565b91505092915050565b6000813590506120888161300a565b92915050565b6000602082840312156120a057600080fd5b60006120ae84828501611fd1565b91505092915050565b600080604083850312156120ca57600080fd5b60006120d885828601611fd1565b92505060206120e985828601611fd1565b9150509250929050565b60008060006060848603121561210857600080fd5b600061211686828701611fd1565b935050602061212786828701611fd1565b925050604061213886828701612079565b9150509250925092565b6000806000806080858703121561215857600080fd5b600061216687828801611fd1565b945050602061217787828801611fd1565b935050604061218887828801612079565b925050606085013567ffffffffffffffff8111156121a557600080fd5b6121b187828801612025565b91505092959194509250565b600080604083850312156121d057600080fd5b60006121de85828601611fd1565b92505060206121ef85828601611fe6565b9150509250929050565b6000806040838503121561220c57600080fd5b600061221a85828601611fd1565b925050602061222b85828601612079565b9150509250929050565b60006020828403121561224757600080fd5b600061225584828501611ffb565b91505092915050565b60006020828403121561227057600080fd5b600061227e84828501612010565b91505092915050565b60006020828403121561229957600080fd5b600082013567ffffffffffffffff8111156122b357600080fd5b6122bf8482850161204f565b91505092915050565b6000602082840312156122da57600080fd5b60006122e884828501612079565b91505092915050565b6122fa816129df565b82525050565b612309816129f1565b82525050565b600061231a82612946565b612324818561295c565b9350612334818560208601612a62565b61233d81612bce565b840191505092915050565b600061235382612951565b61235d818561296d565b935061236d818560208601612a62565b61237681612bce565b840191505092915050565b600061238c82612951565b612396818561297e565b93506123a6818560208601612a62565b80840191505092915050565b60006123bf602d8361296d565b91506123ca82612bdf565b604082019050919050565b60006123e2602b8361296d565b91506123ed82612c2e565b604082019050919050565b600061240560328361296d565b915061241082612c7d565b604082019050919050565b600061242860268361296d565b915061243382612ccc565b604082019050919050565b600061244b60258361296d565b915061245682612d1b565b604082019050919050565b600061246e601c8361296d565b915061247982612d6a565b602082019050919050565b600061249160048361297e565b915061249c82612d93565b600482019050919050565b60006124b460248361296d565b91506124bf82612dbc565b604082019050919050565b60006124d760198361296d565b91506124e282612e0b565b602082019050919050565b60006124fa601b8361296d565b915061250582612e34565b602082019050919050565b600061251d60298361296d565b915061252882612e5d565b604082019050919050565b600061254060208361296d565b915061254b82612eac565b602082019050919050565b600061256360208361296d565b915061256e82612ed5565b602082019050919050565b600061258660188361296d565b915061259182612efe565b602082019050919050565b60006125a960218361296d565b91506125b482612f27565b604082019050919050565b60006125cc603d8361296d565b91506125d782612f76565b604082019050919050565b6125eb81612a49565b82525050565b60006125fd8285612381565b91506126098284612381565b915061261482612484565b91508190509392505050565b600060208201905061263560008301846122f1565b92915050565b600060808201905061265060008301876122f1565b61265d60208301866122f1565b61266a60408301856125e2565b818103606083015261267c818461230f565b905095945050505050565b600060208201905061269c6000830184612300565b92915050565b600060208201905081810360008301526126bc8184612348565b905092915050565b600060208201905081810360008301526126dd816123b2565b9050919050565b600060208201905081810360008301526126fd816123d5565b9050919050565b6000602082019050818103600083015261271d816123f8565b9050919050565b6000602082019050818103600083015261273d8161241b565b9050919050565b6000602082019050818103600083015261275d8161243e565b9050919050565b6000602082019050818103600083015261277d81612461565b9050919050565b6000602082019050818103600083015261279d816124a7565b9050919050565b600060208201905081810360008301526127bd816124ca565b9050919050565b600060208201905081810360008301526127dd816124ed565b9050919050565b600060208201905081810360008301526127fd81612510565b9050919050565b6000602082019050818103600083015261281d81612533565b9050919050565b6000602082019050818103600083015261283d81612556565b9050919050565b6000602082019050818103600083015261285d81612579565b9050919050565b6000602082019050818103600083015261287d8161259c565b9050919050565b6000602082019050818103600083015261289d816125bf565b9050919050565b60006020820190506128b960008301846125e2565b92915050565b60006128c96128da565b90506128d58282612ac7565b919050565b6000604051905090565b600067ffffffffffffffff8211156128ff576128fe612b9f565b5b61290882612bce565b9050602081019050919050565b600067ffffffffffffffff8211156129305761292f612b9f565b5b61293982612bce565b9050602081019050919050565b600081519050919050565b600081519050919050565b600082825260208201905092915050565b600082825260208201905092915050565b600081905092915050565b600061299482612a49565b915061299f83612a49565b9250827fffffffffffffffffffffffffffffffffffffffffffffffffffffffffffffffff038211156129d4576129d3612b41565b5b828201905092915050565b60006129ea82612a29565b9050919050565b60008115159050919050565b60007fffffffff0000000000000000000000000000000000000000000000000000000082169050919050565b600073ffffffffffffffffffffffffffffffffffffffff82169050919050565b6000819050919050565b82818337600083830152505050565b60005b83811015612a80578082015181840152602081019050612a65565b83811115612a8f576000848401525b50505050565b60006002820490506001821680612aad57607f821691505b60208210811415612ac157612ac0612b70565b5b50919050565b612ad082612bce565b810181811067ffffffffffffffff82111715612aef57612aee612b9f565b5b80604052505050565b6000612b0382612a49565b91507fffffffffffffffffffffffffffffffffffffffffffffffffffffffffffffffff821415612b3657612b35612b41565b5b600182019050919050565b7f4e487b7100000000000000000000000000000000000000000000000000000000600052601160045260246000fd5b7f4e487b7100000000000000000000000000000000000000000000000000000000600052602260045260246000fd5b7f4e487b7100000000000000000000000000000000000000000000000000000000600052604160045260246000fd5b6000601f19601f8301169050919050565b7f4552433732313a2063616c6c6572206973206e6f7420746f6b656e206f776e6560008201527f72206f7220617070726f76656400000000000000000000000000000000000000602082015250565b7f455243373231456e756d657261626c653a206f776e657220696e646578206f7560008201527f74206f6620626f756e6473000000000000000000000000000000000000000000602082015250565b7f4552433732313a207472616e7366657220746f206e6f6e20455243373231526560008201527f63656976657220696d706c656d656e7465720000000000000000000000000000602082015250565b7f4f776e61626c653a206e6577206f776e657220697320746865207a65726f206160008201527f6464726573730000000000000000000000000000000000000000000000000000602082015250565b7f4552433732313a207472616e736665722066726f6d20696e636f72726563742060008201527f6f776e6572000000000000000000000000000000000000000000000000000000602082015250565b7f4552433732313a20746f6b656e20616c7265616479206d696e74656400000000600082015250565b7f2e706e6700000000000000000000000000000000000000000000000000000000600082015250565b7f4552433732313a207472616e7366657220746f20746865207a65726f2061646460008201527f7265737300000000000000000000000000000000000000000000000000000000602082015250565b7f4552433732313a20617070726f766520746f2063616c6c657200000000000000600082015250565b7f50726f6a6563742069732066696e6973686564206d696e74696e670000000000600082015250565b7f4552433732313a2061646472657373207a65726f206973206e6f74206120766160008201527f6c6964206f776e65720000000000000000000000000000000000000000000000602082015250565b7f4552433732313a206d696e7420746f20746865207a65726f2061646472657373600082015250565b7f4f776e61626c653a2063616c6c6572206973206e6f7420746865206f776e6572600082015250565b7f4552433732313a20696e76616c696420746f6b656e2049440000000000000000600082015250565b7f4552433732313a20617070726f76616c20746f2063757272656e74206f776e6560008201527f7200000000000000000000000000000000000000000000000000000000000000602082015250565b7f4552433732313a20617070726f76652063616c6c6572206973206e6f7420746f60008201527f6b656e206f776e6572206f7220617070726f76656420666f7220616c6c000000602082015250565b612fce816129df565b8114612fd957600080fd5b50565b612fe5816129f1565b8114612ff057600080fd5b50565b612ffc816129fd565b811461300757600080fd5b50565b61301381612a49565b811461301e57600080fd5b5056fea26469706673582212205ce423b0a960e894ec7842ed263645639797ba038c3d5d86ed986d3a7cad213264736f6c63430008010033",
  "immutableReferences": {},
  "source": "// contracts/GameItem.sol\n// SPDX-License-Identifier: MIT\npragma solidity ^0.8.0;\n\nimport \"@openzeppelin/contracts/token/ERC721/extensions/ERC721URIStorage.sol\";\nimport \"@openzeppelin/contracts/token/ERC721/extensions/ERC721Enumerable.sol\";\nimport \"@openzeppelin/contracts/utils/Counters.sol\";\nimport \"@openzeppelin/contracts/utils/Strings.sol\";\nimport \"@openzeppelin/contracts/access/Ownable.sol\";\n\ncontract UNCRAgent is ERC721URIStorage, Ownable {\n    using Counters for Counters.Counter;\n    Counters.Counter private _tokenIds;\n\n    string private _customBaseURI;\n    uint256 private _price;\n    uint256 private _maxCreationable;\n\n    mapping (address => uint256[]) private _ownedTokens;\n    \n    constructor(string memory customBaseURI_) ERC721(\"UNCRAgent\", \"UNCRAgent\") {\n      _customBaseURI = customBaseURI_;\n      _price = 0.05 ether;\n      _maxCreationable = 1000;\n    }\n    \n    function tokenOfOwnerByIndex(address owner, uint256 index) public view returns (uint256) {\n        require(index < ERC721.balanceOf(owner), \"ERC721Enumerable: owner index out of bounds\");\n        return _ownedTokens[owner][index];\n    }\n\n    function setBaseURI(string memory customBaseURI_) public onlyOwner {\n      _customBaseURI = customBaseURI_;\n    }\n    \n    function tokenURI(uint256 tokenId) public view override returns (string memory) {\n        _requireMinted(tokenId);\n\n        string memory baseURI = _baseURI();\n        return bytes(baseURI).length > 0 ? string(abi.encodePacked(baseURI, Strings.toString(tokenId), \".png\")) : \"\";\n    }\n\n    function accountCreation(uint256 quantity) \n        public\n        payable\n        returns (uint256)\n    {\n        require(quantity <= 5);\n        for (uint i=0 ; i<quantity; i++){\n          accountCreationSignup(msg.sender);\n        }\n    }\n    \n    function accountCreationSignup(address recipient) private {\n      require(_tokenIds.current() <= _maxCreationable, \"Project is finished minting\");\n      uint256 newItemId = _tokenIds.current() + 1;\n        _creation(recipient, newItemId);\n        _addTokensToOwnerEnumeration(recipient, newItemId);\n        _tokenIds.increment();\n    }\n\n            // add tokens to the _alltokens array and set the position of the tokens index \n    function _addTokensToOwnerEnumeration(address to, uint256 tokenId) private {\n      // EXERCISE - CHALLENGE - D\n      // 1. add address and token id to the _ownedTokens\n      _ownedTokens[to].push(tokenId);\n    }\n    \n    function _baseURI() internal view virtual override returns (string memory) {\n      return _customBaseURI;\n    }\n}",
  "sourcePath": "/Users/khjun/Documents/2023/trufflePrac/contracts/UNCRAgent.sol",
  "compiler": {
    "name": "solc",
    "version": "0.8.1+commit.df193b15.Emscripten.clang"
  },
  "schemaVersion": "3.4.13",
  "updatedAt": "2023-03-12T12:48:35.876Z",
  "networkType": "ethereum",
  "devdoc": {
    "kind": "dev",
    "methods": {
      "approve(address,uint256)": {
        "details": "See {IERC721-approve}."
      },
      "balanceOf(address)": {
        "details": "See {IERC721-balanceOf}."
      },
      "getApproved(uint256)": {
        "details": "See {IERC721-getApproved}."
      },
      "isApprovedForAll(address,address)": {
        "details": "See {IERC721-isApprovedForAll}."
      },
      "name()": {
        "details": "See {IERC721Metadata-name}."
      },
      "owner()": {
        "details": "Returns the address of the current owner."
      },
      "ownerOf(uint256)": {
        "details": "See {IERC721-ownerOf}."
      },
      "renounceOwnership()": {
        "details": "Leaves the contract without owner. It will not be possible to call `onlyOwner` functions anymore. Can only be called by the current owner. NOTE: Renouncing ownership will leave the contract without an owner, thereby removing any functionality that is only available to the owner."
      },
      "safeTransferFrom(address,address,uint256)": {
        "details": "See {IERC721-safeTransferFrom}."
      },
      "safeTransferFrom(address,address,uint256,bytes)": {
        "details": "See {IERC721-safeTransferFrom}."
      },
      "setApprovalForAll(address,bool)": {
        "details": "See {IERC721-setApprovalForAll}."
      },
      "supportsInterface(bytes4)": {
        "details": "See {IERC165-supportsInterface}."
      },
      "symbol()": {
        "details": "See {IERC721Metadata-symbol}."
      },
      "tokenURI(uint256)": {
        "details": "See {IERC721Metadata-tokenURI}."
      },
      "transferFrom(address,address,uint256)": {
        "details": "See {IERC721-transferFrom}."
      },
      "transferOwnership(address)": {
        "details": "Transfers ownership of the contract to a new account (`newOwner`). Can only be called by the current owner."
      }
    },
    "version": 1
  },
  "userdoc": {
    "kind": "user",
    "methods": {},
    "version": 1
  }
}